:020000040800F2
:1000000018090020CD010008331F0008251A000838
:10001000311F0008D302000825240008000000005A
:10002000000000000000000000000000371F000872
:10003000D502000800000000351F0008391F000825
:10004000E7010008E7010008E7010008E7010008F0
:10005000E7010008E7010008E7010008E7010008E0
:10006000E7010008E7010008E7010008E7010008D0
:10007000E7010008E7010008E7010008E7010008C0
:10008000E7010008E7010008E7010008E7010008B0
:10009000E7010008E7010008E7010008E7010008A0
:1000A000E7010008E7010008E7010008E701000890
:1000B000E70100089D1F0008E7010008E7010008AC
:1000C000E7010008E7010008E7010008E701000870
:1000D000E7010008E701000819240008E70100080B
:1000E000E7010008E7010008E7010008E701000850
:1000F000E7010008E7010008E7010008E701000840
:10010000E7010008E7010008E7010008E70100082F
:10011000E7010008E7010008E7010008E70100081F
:10012000E7010008E7010008E7010008E70100080F
:1001300000F002F800F03AF80AA090E8000C8244BF
:100140008344AAF10107DA4501D100F02FF8AFF29C
:10015000090EBAE80F0013F0010F18BFFB1A43F0A5
:100160000103184794230000B4230000103A24BF71
:1001700078C878C1FAD8520724BF30C830C144BF0C
:1001800004680C607047000000230024002500264E
:10019000103A28BF78C1FBD8520728BF30C148BFEA
:1001A0000B6070471FB51FBD10B510BD00F063F8A0
:1001B0001146FFF7F7FF02F047F900F081F803B4AA
:1001C000FFF7F2FF03BC00F04BF80000094880473E
:1001D00009480047FEE7FEE7FEE7FEE7FEE7FEE729
:1001E000FEE7FEE7FEE7FEE704480549054A064B41
:1001F000704700009B1F0008310100081803002011
:100200001809002018050020180500204FF00002F2
:1002100000B5134694469646203922BFA0E80C50FC
:10022000A0E80C50B1F12001BFF4F7AF090728BFD7
:10023000A0E80C5048BF0CC05DF804EB890028BF53
:1002400040F8042B08BF704748BF20F8022B11F07C
:10025000804F18BF00F8012B7047704770477047F8
:1002600001491820ABBEFEE7260002000048704797
:10027000B402002070477546FFF7F8FFAE46050050
:100280006946534620F00700854618B020B5FFF7B1
:10029000ABFFBDE820404FF000064FF000074FF0E5
:1002A00000084FF0000B21F00701AC46ACE8C00994
:1002B000ACE8C009ACE8C009ACE8C0098D4670479D
:1002C00010B50446AFF300802046BDE81040FFF7AC
:1002D00076BFFEE7704772B6FEE710B590F82110C2
:1002E0000022022905D00421816380F8202001200A
:1002F00010BD01680B6823F00E030B6001680B68EA
:1003000023F001030B6090F84030C46B012101FA27
:1003100003F3636080F8211080F82020104610BDA0
:100320002DE9F05F90F821100024022903D0042168
:100330008163012485E001680A6822F00E020A60E8
:1003400001680A6822F001020A603F4E3E4FB21572
:10035000DFF8F4C0DFF8F090DFF8ECA0DFF8E8B0E9
:10036000DFF8E4E00168783F13011502ACF1640C9A
:10037000A9F15009AAF13C0AABF1280BAEF1140E19
:100380004FF48018B14227D9B9420ED0614512D03E
:1003900049451DD0514518D0594518D0714501D156
:1003A000424615E0294EB14201D1012210E0274E0C
:1003B0001436B14201D110220AE0244E2836B1424F
:1003C00006D0224A3C32914201D11A4600E02A4628
:1003D0001E49091F0A602BE0B94213D0614517D0AE
:1003E000494522D051451DD059451DD0714501D1F7
:1003F00042461AE0B14202D14FF0807215E0134E2E
:10040000B14201D1012210E0104E1436B14201D1A7
:1004100010220AE00D4E2836B14206D00B4A3C327B
:10042000914201D11A4600E02A46074980394A60C4
:10043000012180F82110002180F82010416B01B1CA
:1004400088472046BDE8F09F800002400804024033
:1004500070B5044600F010F90546601C02D004484F
:100460000078044400F008F9401BA042FAD370BDA4
:10047000000000202DE9F84FDFF8C8910024A9F111
:10048000040B23460F2709F1040AABF1040ED1E057
:100490000125A54006EA0502AA4276D1DFF8A8C1E7
:1004A0004E68A6EB0C0866452BD00DDC032E34D02D
:1004B00005DC36B3012E19D0022E2FD11BE0112EF0
:1004C00016D0122E2AD119E0B8F5881F19D006DCF3
:1004D000B8F5803F15D0B8F5801F1FD111E0B8F5F1
:1004E000001F0ED0B8F5041F18D10AE0CB6815E044
:1004F000CB681B1D12E0CB6808330FE0CB680C33D0
:100500000CE08B682BB1012B4FF0080303D0456141
:1005100004E0042302E0056100E00023FF2A01D883
:10052000064601E000F104064FEA840501D9A5F171
:100530002005D6F8008007FA05FC28EA0C0803FA23
:1005400005F548EA0508C6F800804D68ED0070D54D
:100550003E4DAE6946F00106AE61AD6924F003067A
:1005600005F0010500953A4D06EB050CDCF8085046
:10057000A607360F07FA06F825EA0805DFF8D48043
:10058000404503D14FF0000825E052E0DFF8C88075
:10059000404502D14FF001081DE0DFF8C080404522
:1005A00002D14FF0020816E0DFF8B480404502D1D6
:1005B0004FF003080FE0DFF8AC80404502D14FF068
:1005C000040808E0DFF8A080404502D14FF005089C
:1005D00001E04FF0060808FA06F848EA0508CCF8EA
:1005E00008804D68D9F80060ED024D4601D51643EC
:1005F00000E096432E604D68DAF80060AD02554683
:1006000001D5164300E096432E604D68DBF800608C
:10061000AD035D4601D5164300E096432E604D685C
:10062000DEF80060ED03754601D5164300E0964301
:100630002E60641C0A681646E2407FF429AFBDE8CC
:10064000F88F000008040140000011100010024063
:100650000000014000080140000C01400010014072
:100660000014014000180140001C01400AB1016162
:1006700070470904FBE700000148806870470000EC
:100680000000002070B5040025D094F83D0000253E
:1006900020B984F83C50204600F0B8F8242084F8B3
:1006A0003D002068016821F00101016020680168B7
:1006B00041F4004101602068016821F400410160BB
:1006C00000F000FA4D4A6168914201D84C4900E0BF
:1006D0004C49884201D2012070BD4B492368B0FBD0
:1006E000F1F15E6826F03F060E435E606368934258
:1006F00006D94FF4967359434FF47A73B1FBF3F173
:100700002368491C1E6A26F03F063143196261685E
:10071000914210D84900401EB0FBF1F2521CC2F3C6
:100720000B02042A01D2042022E0B0FBF1F0401CAD
:10073000C0F30B001CE0A268F2B301EBC10303EBB2
:100740000116431EB3FBF6F35B1C43F480431B0509
:1007500049D092B301EBC10202EB0111401EB0FB84
:10076000F1F0401CC0F30B0040F4804040F4004026
:100770002168CA694CF6FF739A431043C861D4E9F3
:10078000071001432068026822F0C0021143016093
:10079000D4E9030101432068826848F2FF339A4399
:1007A00011438160D4E9050108432168CA6822F039
:1007B000FF021043C86001E00EE016E02068016807
:1007C00041F0010101602564202084F83D0025638B
:1007D00084F83E50002070BD01EB4106431EB3FB80
:1007E000F6F35B1CB3E70120C2E701EB4101401EB9
:1007F000B0FBF1F0401CC0F30B00B7E7A08601008E
:1008000080841E0000093D0040420F0010B586B0F4
:100810000021009101910291039100680F498842E3
:100820001AD10F4CA06940F00800A061A069694688
:1008300000F008000490C0200090122001900320D6
:1008400003900848FFF716FEE06940F40010E061ED
:10085000E06900F40010049006B010BD00540040A0
:1008600000100240000C01400248816802781144E7
:100870008160704700000020074810B5016841F012
:1008800010010160032000F075F80F2000F006F859
:1008900000F024F8002010BD0020024070B50D4D7E
:1008A00004464FF47A712878B1FBF0F00A490968E0
:1008B000B1FBF0F000F0DCFA48B9102C07D20022AE
:1008C0002146501E00F036F800206C6070BD0120FB
:1008D00070BD0000000000200C0000200C4808B58E
:1008E000816941F001018161816901F0010100919B
:1008F000C16941F08051C161C06900F08050009031
:100900000448416821F0E06141F00071416008BD98
:100910000010024000000140002809DB00F01F0227
:10092000012191404009800000F1E020C0F8001151
:1009300070470000F0B40E4B1B680C46C3F3022353
:10094000C3F10705042D00D90425191D072901D27B
:10095000002300E0DB1E012606FA05F1491E2140B6
:1009600099409E40761E16403143F0BC01F05BBDBD
:100970000CED00E0064900F0070208684FF6FF039F
:10098000184040EA0220034A104308607047000004
:100990000CED00E00000FA052DE9F0470F460500D8
:1009A00061D0434E306800F00700B84209D2306889
:1009B00020F0070038433060306800F00700B8428C
:1009C00051D128683B4C810712D5400703D5606898
:1009D00040F4E06060602878000703D5606840F468
:1009E000605060606068A96820F0F00008436060B3
:1009F0002878C00728D06868012810D0216802280C
:100A000010D0890700292EDA616821F00301014323
:100A10006160FFF731FE804641F288390DE02168C0
:100A20008903EFE78901EDE7FFF726FEA0EB080158
:100A3000494502D90320BDE8F0876068696800F085
:100A40000C00B0EB810FEFD1306800F00700B84226
:100A50000BD9306820F0070038433060306800F070
:100A60000700B84201D00120E5E72878400705D506
:100A70006068E96820F4E060084360602878000757
:100A800006D56068296920F4605040EAC1006060C2
:100A900000F038F86168084AC1F30311515CC8409E
:100AA0000649086006480068FFF7F8FE0020C2E724
:100AB0000020024000100240DE2400080C0000204C
:100AC000040000200448054900684968044AC1F34D
:100AD0000221515CC84070470C0000200010024009
:100AE000EE2400080448054900684968044AC1F337
:100AF000C221515CC84070470C0000200010024029
:100B0000EE2400080E4A51680E4801F00C03042B35
:100B100011D0082B0FD10C48C1F38343C903C05C2B
:100B20000AD55168084AC1F34041921E515C054AFA
:100B30005043B0FBF1F07047044948437047000050
:100B40000010024000127A00CE24000800093D0087
:100B50002DE9F84F040070D02078C04DC00749D06F
:100B60006868C0F38100012807D06868C0F381007D
:100B7000022809D16868C00306D52868800339D5E2
:100B800060680028E7D035E06068B0F5803F0BD0A2
:100B900010B1B0F5A02F11D0286820F48030286063
:100BA000286820F4802002E0286840F48030286023
:100BB000606890B1FFF760FD06460AE0286840F4DF
:100BC00080202860F0E700BFFFF756FD801B6428F7
:100BD00073D828688003F7D50CE0FFF74DFD064673
:100BE00005E000BFFFF748FD801B6428F0D82868A7
:100BF0008003F7D420789A4E80074FF001094FF018
:100C0000000839D5686810F00C0F07D06868C0F389
:100C10008100022809D16868C00306D428688007CB
:100C200014D52069012808D110E02069B0B1C6F8B8
:100C30000090FFF721FD074605E00AE1FFF71CFDE4
:100C4000C01B0228C4D828688007F7D528686169C6
:100C500020F0F80040EAC10028600DE0C6F80080EE
:100C6000FFF70AFD074604E0FFF706FDC01B022858
:100C700023D828688007F7D4207800072CD5794836
:100C8000A169D9B1C0F80090FFF7F6FC074604E06F
:100C9000FFF7F2FCC01B02280FD8686A8007F7D55F
:100CA00071484FF4FA510068B0FBF1F0009000BFBA
:100CB0000098411E0091FAD20EE080E0C0F800805A
:100CC000FFF7DAFC074604E0FFF7D6FCC01B02285A
:100CD00075D8686A8007F7D42078400760D5E8693E
:100CE0000027C00008D4E86940F08050E861E86956
:100CF000012700F0805000905C480168C90513D4BA
:100D00000168834641F480710160FFF7B5FC8246BB
:100D100006E000BFFFF7B0FCA0EB0A0064284ED845
:100D2000DBF80000C005F5D5E06801280AD008B15D
:100D3000052813D0286A20F001002862286A20F0D4
:100D4000040002E0286A40F001002862E06841F2F5
:100D5000883B98B1FFF790FC82460BE0286A40F090
:100D600004002862EEE700BFFFF786FCA0EB0A0153
:100D700059455AD8286A8007F6D50CE0FFF77CFC65
:100D8000824605E0FFF778FCA0EB0A0159454CD8F4
:100D9000286A8007F6D41FB1E86920F08050E86126
:100DA000E06988B36968C1F38101022944D002284F
:100DB000C6F8608004D0FFF75FFC044638E034E0FA
:100DC000FFF75AFC074604E0FFF756FCC01B022859
:100DD0002BD828688001F7D4206AB0F5803F05D170
:100DE0006868A16820F4003008436860D4E908010D
:100DF0000843696821F4741108436860C6F860907C
:100E0000FFF73AFC044606E025E000BFFFF734FC9C
:100E1000001B022809D828688001F7D51BE000BF15
:100E2000FFF72AFC001B022802D90320BDE8F88F37
:100E300028688001F4D40EE00128F7D06868226A9F
:100E400000F48031914204D1616A00F4701088424C
:100E500001D00120EAE70020E8E70000001002408E
:100E600000004242800442420C000020007000401A
:100E700010B5401EB0F1807F01D3012010BD4FF0AE
:100E8000E02460610F21601701F0CDFA0020A0611D
:100E900007202061002010BD7047704710B590F802
:100EA0003C20012A22D0012280F83C20CA688C68AC
:100EB00022F4407222434C6822F4806222430C6880
:100EC00022F4006222430C6922F4805222434C69CE
:100ED00022F400522243C969002322F480420A43CB
:100EE00001684A6480F83C30002010BD022010BD2B
:100EF00070B590F83C20012A2CD0012480F83C40A9
:100F0000022280F83D2003685A689D6822F070062E
:100F10000A6832435A60104B02689A420ED00F4B57
:100F20009A420BD0B2F1804F08D00D4B9A4205D0B7
:100F30000C4B9A4202D00C4B9A4204D1496825F0DE
:100F400080031943916080F83D40002180F83C10F7
:100F5000084670BD022070BD002C014000340140E5
:100F60000004004000080040000C004010B50400E0
:100F700003D094F83D0010B107E0012010BD00201F
:100F800084F83C00204600F01FF8022084F83D0061
:100F9000211D206801F008F8012084F8460084F83B
:100FA0003E0084F83F0084F8400084F8410084F853
:100FB000420084F8430084F8440084F8450084F833
:100FC0003D00002010BD000008B500680B498842B4
:100FD00012D10B48C16941F00201C161C069002210
:100FE00000F00200009011461D20FFF7A3FCBDE8B1
:100FF00008401D20FFF790BC08BD00000004004021
:101000000010024070B5044690F83C00002501280D
:1010100017D0012684F83C60022084F83D00206847
:10102000826822F0770222F47F42826008685028AA
:1010300038D00DDC20284FD005DC90B3102811D11A
:101040004AE0022070BD302846D040280AD13BE05B
:1010500060282FD070280DD0B0F5805F03D0B0F598
:10106000005F12D0012584F83D60002084F83C0028
:10107000284670BDCB68D1E90121206800F0E7FF68
:101080002068816841F0770109E0CB68D1E901214E
:10109000206800F0DCFF2068816841F480418160B5
:1010A000E1E719E0CA684968206801F0A5F8502115
:1010B000206806E0CA684968206801F0AEF860213F
:1010C000206800F0CEFFCEE7CA684968206801F0CA
:1010D00093F840212068F4E7226801461046F0E7C3
:1010E000704770B50446006801694FF00005C943B8
:1010F000890715D4C168C943890711D4E91E016164
:1011000001202077206880698007204602D0FFF701
:10111000E7FF04E000F02EF9204600F0F7F925770C
:1011200020680169C943490717D4C168C943490701
:1011300013D46FF0040101610220207720688069D8
:1011400010F4407F204602D0FFF7CAFF04E000F011
:1011500011F9204600F0DAF9257720680169C943C2
:10116000090716D4C168C943090712D46FF00801F2
:101170000161042020772068C0698007204602D0E2
:10118000FFF7AEFF04E000F0F5F8204600F0BEF9EE
:10119000257720680169C943C90617D4C168C943C6
:1011A000C90613D46FF01001016108202077206870
:1011B000C06910F4407F204602D0FFF791FF04E0A1
:1011C00000F0D8F8204600F0A1F9257720680169E1
:1011D000C943C90708D1C168C943C90704D1891ED9
:1011E0000161204600F0EEF920680169C943090653
:1011F00009D4C168C943090605D46FF080010161B3
:101200002046FFF749FE20680169C943490609D411
:10121000C168C943490605D46FF040010161204609
:1012200000F0FAF920680169C94389060BD4C16846
:10123000C943890607D46FF0200101612046BDE84B
:101240007040FFF72ABE70BD70B586B000210091D6
:1012500001910291039100683D4A3E4902243E4DAE
:10126000904218D1886940F04000886188696946D9
:1012700000F0400004904FF4D440CDE9000437481A
:101280000394FFF7F7F8686820F0C00040F0E060D2
:1012900040F0C00046E0324EB0F1804F19D0314AE4
:1012A000904242D1886940F020008861886969468F
:1012B00000F0200004904FF44050CDE900042A488B
:1012C0000394FFF7D7F8686840F0E06040F480507E
:1012D00028E0886940F008008861886900F008000B
:1012E0000490886940F0040088618869694600F0CC
:1012F0000400049040F60840CDE900041B48039424
:10130000FFF7B8F84FF40040CDE9000469463046D5
:101310000394FFF7AFF8686820F4407040F0E06095
:1013200040F44070686006B070BD114A9042FAD136
:10133000886940F0040088618869009400F0040026
:101340000194CDE9034069463046FFF793F8EAE798
:10135000002C014000100240000001400018014034
:10136000000801400008004000140140000C01404A
:10137000000C0040704770B5044690F83C00002611
:101380000D4601280FD0012084F83C006AB1042AE0
:101390001DD0082A2FD00C2A3FD00126002084F827
:1013A0003C00304670BD022070BD206800F062FE37
:1013B0002068816941F0080181612068816921F01C
:1013C00004018161206881692A69114311E0206864
:1013D00000F080FE2068816941F40061816120682D
:1013E000816921F480618161206881692A6941EA0B
:1013F00002218161D2E7206800F0A2FE2068C16965
:1014000041F00801C1612068C16921F00401C16196
:101410002068C1692A69114311E0206800F0C4FE08
:101420002068C16941F40061C1612068C16921F48B
:101430008061C1612068C1692A6941EA0221C161F4
:10144000ACE710B5040003D094F83D0010B107E0FC
:10145000012010BD002084F83C00204600F01EF85A
:10146000022084F83D00211D206800F09DFD012030
:1014700084F8460084F83E0084F83F0084F8400079
:1014800084F8410084F8420084F8430084F8440062
:1014900084F8450084F83D00002010BD08B5174AC7
:1014A00001681748914207D1816941F40061816167
:1014B000806900F4006014E0B1F1804F0AD0114A55
:1014C000914210D1C16941F00401C161C06900F0CD
:1014D000040006E0C16941F00101C161C06900F08A
:1014E0000100009008BD084A9142FBD1C16941F05A
:1014F0000801C161C06900F00800F2E7002C01405A
:101500000010024000080040000C0040704700003E
:1015100010B50446022249B104290ED0082913D07F
:1015200094F84100012816D0012010BD94F83E0027
:101530000128F9D184F83E200FE094F83F000128FB
:10154000F2D184F83F2008E094F840000128EBD164
:1015500084F8402001E084F841200122206800F056
:1015600069FD13492068134A884201D0904203D193
:10157000436C43F400434364206888420DD090429A
:101580000BD0B0F1804F08D00B49884205D00B49F1
:10159000884202D00A49884204D1816801F00701DB
:1015A000062903D0016841F001010160002010BD4F
:1015B000002C0140003401400004004000080040BD
:1015C000000C004010B512490068096888421DD11E
:1015D00010480188491C8AB20A21B2FBF1F301FBD1
:1015E00013230280012103B9C1816423B2FBF3F408
:1015F00003FB142323B941808180018141818181D2
:10160000B2F5FA7F02D3C1800021018010BD000035
:101610000401002010000020704770477047000050
:10162000F8B5016804460868CA684B6910F00F0FE6
:101630004FF0000559D003F0010602F490773743CC
:1016400065D0C10705D0D10503D5616C41F001011A
:101650006164410705D5D90703D0616C41F00201EF
:101660006164810705D5D90703D0616C41F004019D
:101670006164010707D502F02001314303D0616C9A
:1016800041F008016164616C00293AD0800604D5FC
:10169000900602D5204600F001FE20684069616C8A
:1016A000C0F38010090700D460B3204600F0CFFDDE
:1016B00020684069400621D52068143050E8001F9A
:1016C00021F0400140E80012002AF5D1E06BA8B1FA
:1016D0006D494163E06BFEF723FE002811D0E06BFB
:1016E000416B01B0BDE8F040084783060FD5930673
:1016F0000DD52046BDE8F84000F0D0BD2046FFF7EC
:101700008DFFF8BD2046FFF789FF6564F8BD266BA5
:101710002023012E7CD1C6067AD5D60678D5086856
:101720004868009048694FF00206400640D5E16BDA
:10173000086840680004000CE8D0A28D8242E5D918
:10174000E085886920282DD020680C3050E8001FE3
:1017500021F4807140E80012002AF5D1206814308D
:1017600050E8001F21F0010140E80012002AF5D1E5
:101770002068143050E8001F21F0400140E80012BA
:10178000002AF5D184F84230256320680C3050E8F7
:10179000001F21F0100140E80012002AF5D1E06B93
:1017A000FEF79BFD6663A08DE18D401A81B22AE0B1
:1017B000A08DE18D401A81B2E08D0028A6D00029CD
:1017C000A4D022680C3252E8000F20F4907042E856
:1017D0000007002FF5D12068143050E8002F22F0C8
:1017E000010240E80027002FF5D184F8423025633C
:1017F00020680C3050E8002F22F0100240E800234F
:10180000002BF5D166632046FFF707FFF8BDFFE721
:1018100005062BD5150629D594F841002128F5D1C8
:10182000A068B0F5805F01D12069B0B1206A411C89
:101830002162216800784860E08C401E0004000CA2
:10184000E084E3D12068C16821F08001C160206894
:10185000C16841F04001C160D8E7206A0088C0F348
:1018600008004860206A801C2062E5E74006CDD56C
:101870005006CBD5CA68204622F04002CA6084F8E0
:10188000413000F0CEF8C1E73F22000870B50400F7
:1018900004D094F84100002510B106E0012070BD8D
:1018A00084F84050204600F023F8242084F84100BA
:1018B0002068C16821F40051C160204600F050FD4D
:1018C0002068016921F4904101612068416921F09B
:1018D0002A0141612068C16841F40051C16065641A
:1018E000202084F8410084F842006563002070BD28
:1018F000F0B585B000240094019402940394424909
:10190000404F03684E1502200322404DBB4220D1B8
:101910008B6943F480438B618B6903F480430493A8
:101920008B6943F004038B61896901F00401CDE9FF
:101930000321CDE9006069462846FEF79BFD281586
:10194000CDE90004694628460294FEF793FD05B0F0
:10195000F0BD2F4FBB4228D1CB6943F40033CB619C
:10196000CB6903F4003304938B6943F004038B6168
:101970008969039201F0040104910421CDE900106A
:1019800069462846FEF776FD0820CDE90004694641
:1019900028460294FEF76EFD002211462620FEF72F
:1019A000C9FF2620FEF7B8FFD1E71A4DAB42CED1D2
:1019B000CB6943F48023CB61CB6903F48023049388
:1019C0008B6943F020038B618969039201F0200148
:1019D0000491A915CDE900100F4D69462846FEF780
:1019E00049FDCDE90064694628460294FEF742FDB0
:1019F0000A48416821F0300141F0E06141F03001D6
:101A00004160A4E700380140001002400008014096
:101A10000044004000480040001401400000014024
:101A200070477047FEE7000070B5104E002220217D
:101A30003046FEF71BFE012240213046FEF716FE1F
:101A40000B4D322428684463002280213046FEF783
:101A50000DFE012211023046FEF708FE286884635D
:101A6000BDE870404FF4FA60FEF7F2BC0020014080
:101A70004C0100202DE9F04786B00024394800943D
:101A8000019402940394816941F01001816181699C
:101A900001F010010491816941F0040181618169C3
:101AA00001F004010491816941F040018161816983
:101AB00001F040010491816941F00801816181696F
:101AC00001F008010491816941F02001816181697F
:101AD00001F020010491816941F480718161806984
:101AE000DFF8848000F48070049000224FF41C71B1
:101AF0004046FEF7BBFDDFF874904FF4F07700220C
:101B000039464846FEF7B2FD01224FF4C071404607
:101B1000FEF7ACFDDFF858A000221E215046FEF76C
:101B2000A5FD4FF47C7001250226CDE90005CDE925
:101B3000024669464046FEF79DFC00970396CDE9B4
:101B4000015469464846FEF795FC1E20CDE9000584
:101B5000CDE9024669465046FEF78CFC06B0BDE86A
:101B6000F0870000001002400010014000200140FA
:101B7000001401400D4810B50B4901600C4941604B
:101B800000214FF480428160C0E90312416181610C
:101B9000C1610162FEF776FD002803D0BDE8104068
:101BA000FEF799BB10BD000000540040200000204B
:101BB000A086010010B592B000240F941C21684645
:101BC0001094FEF723FB202107A8FEF71FFB2D48EA
:101BD0002B4901604821C0E9011444F61F61C0E9A6
:101BE000031444618461FFF72CFC08B1FEF773FB1A
:101BF0000F940FA923481094FFF77AF908B1FEF764
:101C00006AFB602000904FF4FA70CDE90104039460
:101C100004940594002269461A480694FFF7ABFB2A
:101C200008B1FEF758FB042269461648FFF7A3FBEC
:101C300008B1FEF750FB082269461248FFF79BFBEC
:101C400008B1FEF748FB0C2269460E48FFF793FBEC
:101C500008B1FEF740FB0794089409944FF4005034
:101C60000A94CDE90B4007A906480E94FFF716F930
:101C700008B1FEF730FB0348FFF7E6FA12B010BDDB
:101C8000002C01407400002010B58AB00024079495
:101C90001C2168460894FEF7B9FA23484FF08041AA
:101CA00001604821C0E9011444F61F61C0E9031432
:101CB0008461FFF7C6FB08B1FEF70DFB079407A987
:101CC00019480894FFF714F908B1FEF704FB6020E7
:101CD00000904FF4FA70CDE90104002269461248E1
:101CE0000494FFF748FB08B1FEF7F5FA04226946B1
:101CF0000D48FFF740FB08B1FEF7EDFA08226946F0
:101D000009480194FFF737FB08B1FEF7E4FA0C220B
:101D100069460548FFF72FFB08B1FEF7DCFA0248D9
:101D2000FFF792FA0AB010BDBC00002010B586B0D3
:101D300000241748009401940294039404941349D6
:101D40000594016041F61F41C0E901146421C0E916
:101D500003148461FFF70AF908B1FEF7BCFA4FF4E7
:101D60008050009069460A48FFF74CF908B1FEF729
:101D7000B2FA049404A906480594FFF7B9F80028BC
:101D800001D0FEF7A8FA06B010BD00000004004024
:101D90000401002010B58AB0002407941C21684675
:101DA0000894FEF733FA1B481949016040F29F512D
:101DB000C0E901146421C0E903148461FFF741FB09
:101DC00008B1FEF788FA079407A912480894FFF7AC
:101DD0008FF808B1FEF77FFA602000903220CDE93D
:101DE0000104002269460B480494FFF7C4FA08B1C5
:101DF000FEF771FA042269460648FFF7BCFA08B1FB
:101E0000FEF769FA0348FFF71FFA0AB010BD000099
:101E1000000800404C01002010B58AB0002407944F
:101E20001C2168460894FEF7F1F916481449016030
:101E30004721C0E9011442F21071C0E90314846122
:101E4000FFF7FFFA08B1FEF746FA079407A90D4815
:101E50000894FFF74DF808B1FEF73DFA6020CDE990
:101E6000000402940422694606480494FFF783FAAA
:101E700008B1FEF730FA0348FFF7E6F90AB010BDE3
:101E8000000C0040940100200C4810B50A49016084
:101E90004FF4E1314160002181600C22C160C0E952
:101EA00004128161C161FFF7F1FC002803D0BDE895
:101EB0001040FEF710BA10BD00380140DC010020D0
:101EC0000C4810B50A4901604FF4E131416000212E
:101ED00081600C22C160C0E904128161C161FFF719
:101EE000D5FC002803D0BDE81040FEF7F4B910BDC2
:101EF00000440040240200200C4810B50A4901604B
:101F00004FF4E1314160002181600C22C160C0E9E1
:101F100004128161C161FFF7B9FC002803D0BDE85C
:101F20001040FEF7D8B910BD004800406C020020F8
:101F3000FEE7FEE770477047FEF796BC30B58FB0FE
:101F400028216846FEF762F914210AA8FEF75EF917
:101F500001210804CDE90010002402940225049117
:101F6000CDE907504FF4E01009906846FEF7F0FD08
:101F700008B172B6FEE70F20CDE90A054FF4806084
:101F8000CDE90C4002210AA80E94FEF705FD0028B9
:101F900001D072B6FEE70FB030BD70470148FFF7C1
:101FA000A0B8000004010020F0B502681C4B1D4DD4
:101FB0001D4E1E4F1E4C4FF0804C984209D0A0423F
:101FC00007D0604505D0A84203D0B04201D0B84246
:101FD00004D122F0700E4A6842EA0E02984209D0FB
:101FE000A04207D0604505D0A84203D0B04201D03E
:101FF000B84203D122F44075CA682A434D6922F0E1
:1020000080022A4302608A68C2620A688262984239
:1020100001D0A04201D10969016301214161F0BDF4
:10202000002C01400004004000080040000C00406B
:102030000034014010B501F01F030121046A9940EA
:102040008C430462016A9A401143016210BD10B5CD
:10205000846842EA032224F47F440A4322438260D4
:1020600010BD826822F070020A4342F007018160CD
:1020700070470000F0B5036A026A22F001020262B2
:1020800042688469124E24F073050C682C4323F0D7
:1020900002058B682B430D4DA84201D0B04205D1FB
:1020A00023F00807CB683B4323F00403A84201D088
:1020B000B04205D14D6922F4407215438A692A4322
:1020C00042608461496841630362F0BD002C0140B5
:1020D00000340140F0B5026A036A23F01003036282
:1020E000436884690D6824F4E64444EA05248D6855
:1020F00022F0200242EA05120F4D104EA84201D0F4
:10210000B04206D1CF6822F0800242EA071222F0E4
:102110004002A84201D0B04207D14D6923F4406388
:1021200043EA85038D6943EA850343608461496816
:1021300081630262F0BD0000002C014000340140C8
:10214000F0B5026A036A23F4807303624368C469CA
:1021500022F4007224F073050C68124E2C438D6833
:1021600042EA05220E4DA84201D0B04206D1CF6806
:1021700022F4006242EA072222F48062A84201D0DF
:10218000B04207D14D6923F4405343EA05138D69EA
:1021900043EA05134360C4614968C1630262F0BD4C
:1021A000002C01400034014030B5046A026A22F478
:1021B000805202624268C3690D6823F4E64343EA31
:1021C00005238D6824F4005444EA0534084DA842E0
:1021D00002D0084DA84204D14D6922F4804242EA5F
:1021E00085124260C36149680164046230BD000029
:1021F000002C01400034014010B5036A046A24F049
:1022000001040462846924F0F00444EA021423F017
:102210000A020A438461026210BD10B5036A046AAF
:1022200024F010040462846923F0A00324F47044B1
:1022300044EA023243EA01118261016210BD10B525
:10224000406A0021C185C184FFF7E8F910BD01682B
:102250000C3151E8002F22F4907241E80023002B4A
:10226000F5D10168143151E8002F22F0010241E854
:102270000023002BF5D1016B012909D101680C3134
:1022800051E8002F22F0100241E80023002BF5D185
:10229000202180F8421000210163704708B590F8B2
:1022A0004210222901D0022008BD82684FF48053D9
:1022B0009A4201D1016921B1816A9A421BD04AB187
:1022C0000AE00268816A5268C2F308020A80816AE1
:1022D000891C08E0026972B10268526802F07F024C
:1022E0000A70816A491C8162C18D491E0904090C6A
:1022F000C18503D01BE002685268F1E70168CA6833
:1023000022F02002CA600168CA6822F48072CA60A2
:1023100001684A6922F001024A61202180F84210D6
:1023200000214163026B012A03D0FFF779FB0020F3
:1023300008BD016301680C3151E8002F22F0100242
:1023400041E80023002BF5D101680A68D20602D5C6
:102350000A6849680091818DFFF75FF9E7E700009F
:1023600070B5044600680169E26821F440511143E8
:1023700001612169A0680843616908432168CA684E
:1023800041F20C639A430243CA6020684169A26922
:1023900021F44071114341611E492068884202D1F5
:1023A000FEF7A0FB01E0FEF78DFB00EBC00101EBA7
:1023B0000012606864218000B2FBF0F3B3FBF1F31C
:1023C0006FF018067343B2FBF0F5B2FBF0F605EBC5
:1023D0008305322303EB0515B5FBF1F5B6FBF1F6EA
:1023E00005F0F00505EB0615B2FBF0F6B2FBF0F0D8
:1023F000B0FBF1F06FF01802504306EB800003EBE6
:102400000010B0FBF1F0216800F00F002844886054
:1024100070BD0000003801400148FFF701B900001D
:1024200024020020FEE70907090E002804DB00F162
:10243000E02080F80014704700F00F0000F1E02069
:1024400080F8141D70470000FEF716FAFFF776FDBE
:10245000FFF710FBFFF7AEFBFFF716FCFFF78AFB59
:10246000FFF7DAFCFFF762FCFFF70EFDFFF728FD30
:10247000FFF742FDFFF78EFC00211148FFF748F8F7
:1024800004210F48FFF744F808210D48FFF740F8F2
:102490000C210B48FFF73CF800210A48FFF738F8F9
:1024A00004210848FFF734F800210748FFF730F807
:1024B00004210548FFF72CF8FFF7B6FAFCE7000007
:1024C00074000020BC0000204C0100200102020327
:1024D0000405060708090A0B0C0D0E0F101000006A
:1024E00000000000000001020304060708090000C4
:1024F000000001020304000018250008000000206D
:10250000200000006C010008382500082000002091
:10251000F808000088010008010000001000000019
:10252000000000000024F400000000000000000093
:082530000000000000000000A3
:0400000508000131BD
:00000001FF
